{
  "contractName": "OneInchOrderProxy",
  "abi": [
    {
      "inputs": [
        {
          "internalType": "address",
          "name": "_oneInchAddr",
          "type": "address"
        }
      ],
      "stateMutability": "nonpayable",
      "type": "constructor"
    },
    {
      "anonymous": false,
      "inputs": [
        {
          "indexed": true,
          "internalType": "uint256",
          "name": "id",
          "type": "uint256"
        },
        {
          "indexed": false,
          "internalType": "address",
          "name": "srcToken",
          "type": "address"
        },
        {
          "indexed": false,
          "internalType": "address",
          "name": "dstToken",
          "type": "address"
        },
        {
          "indexed": false,
          "internalType": "uint256",
          "name": "srcAmount",
          "type": "uint256"
        },
        {
          "indexed": false,
          "internalType": "uint256",
          "name": "execReward",
          "type": "uint256"
        },
        {
          "indexed": false,
          "internalType": "uint256",
          "name": "minReturnAmount",
          "type": "uint256"
        },
        {
          "indexed": false,
          "internalType": "uint256",
          "name": "expiration",
          "type": "uint256"
        }
      ],
      "name": "Create",
      "type": "event"
    },
    {
      "anonymous": false,
      "inputs": [
        {
          "indexed": true,
          "internalType": "uint256",
          "name": "id",
          "type": "uint256"
        }
      ],
      "name": "Execute",
      "type": "event"
    },
    {
      "anonymous": false,
      "inputs": [
        {
          "indexed": true,
          "internalType": "uint256",
          "name": "id",
          "type": "uint256"
        }
      ],
      "name": "Refund",
      "type": "event"
    },
    {
      "anonymous": false,
      "inputs": [
        {
          "indexed": true,
          "internalType": "uint256",
          "name": "id",
          "type": "uint256"
        },
        {
          "indexed": false,
          "internalType": "uint256",
          "name": "minReturnAmount",
          "type": "uint256"
        },
        {
          "indexed": false,
          "internalType": "uint256",
          "name": "expiration",
          "type": "uint256"
        }
      ],
      "name": "Update",
      "type": "event"
    },
    {
      "inputs": [],
      "name": "oneInchExchange",
      "outputs": [
        {
          "internalType": "contract IOneInchExchange",
          "name": "",
          "type": "address"
        }
      ],
      "stateMutability": "view",
      "type": "function",
      "constant": true
    },
    {
      "inputs": [
        {
          "internalType": "uint256",
          "name": "",
          "type": "uint256"
        }
      ],
      "name": "orders",
      "outputs": [
        {
          "internalType": "contract IERC20",
          "name": "srcToken",
          "type": "address"
        },
        {
          "internalType": "contract IERC20",
          "name": "dstToken",
          "type": "address"
        },
        {
          "internalType": "uint256",
          "name": "srcAmount",
          "type": "uint256"
        },
        {
          "internalType": "uint256",
          "name": "minReturnAmount",
          "type": "uint256"
        },
        {
          "internalType": "uint256",
          "name": "execReward",
          "type": "uint256"
        },
        {
          "internalType": "uint256",
          "name": "expiration",
          "type": "uint256"
        },
        {
          "internalType": "address payable",
          "name": "beneficiary",
          "type": "address"
        },
        {
          "internalType": "enum OneInchOrderProxy.State",
          "name": "state",
          "type": "uint8"
        }
      ],
      "stateMutability": "view",
      "type": "function",
      "constant": true
    },
    {
      "stateMutability": "payable",
      "type": "receive",
      "payable": true
    },
    {
      "inputs": [
        {
          "internalType": "address",
          "name": "srcTokenAddr",
          "type": "address"
        },
        {
          "internalType": "address",
          "name": "dstTokenAddr",
          "type": "address"
        },
        {
          "internalType": "uint256",
          "name": "srcAmount",
          "type": "uint256"
        },
        {
          "internalType": "uint256",
          "name": "minReturnAmount",
          "type": "uint256"
        },
        {
          "internalType": "uint256",
          "name": "period",
          "type": "uint256"
        }
      ],
      "name": "create",
      "outputs": [],
      "stateMutability": "payable",
      "type": "function",
      "payable": true
    },
    {
      "inputs": [
        {
          "internalType": "uint256",
          "name": "orderId",
          "type": "uint256"
        },
        {
          "internalType": "uint256",
          "name": "minReturnAmount",
          "type": "uint256"
        },
        {
          "internalType": "uint256",
          "name": "period",
          "type": "uint256"
        }
      ],
      "name": "update",
      "outputs": [],
      "stateMutability": "nonpayable",
      "type": "function"
    },
    {
      "inputs": [
        {
          "internalType": "uint256",
          "name": "orderId",
          "type": "uint256"
        },
        {
          "internalType": "bytes",
          "name": "oneInchCallData",
          "type": "bytes"
        }
      ],
      "name": "execute",
      "outputs": [],
      "stateMutability": "nonpayable",
      "type": "function"
    },
    {
      "inputs": [
        {
          "internalType": "uint256",
          "name": "orderId",
          "type": "uint256"
        }
      ],
      "name": "refund",
      "outputs": [],
      "stateMutability": "nonpayable",
      "type": "function"
    },
    {
      "inputs": [],
      "name": "countOrders",
      "outputs": [
        {
          "internalType": "uint256",
          "name": "",
          "type": "uint256"
        }
      ],
      "stateMutability": "view",
      "type": "function",
      "constant": true
    }
  ],
  "bytecode": "0x608060405234801561001057600080fd5b50604051611bde380380611bde83398101604081905261002f91610054565b600080546001600160a01b0319166001600160a01b0392909216919091179055610082565b600060208284031215610065578081fd5b81516001600160a01b038116811461007b578182fd5b9392505050565b611b4d806100916000396000f3fe6080604052600436106100745760003560e01c806359efcb151161004e57806359efcb15146100ef5780636a0542501461010f578063891b1a001461012f578063a85c38ef146101425761007b565b80630d73c6de14610080578063278ecde1146100ab5780633c16a4ae146100cd5761007b565b3661007b57005b600080fd5b34801561008c57600080fd5b50610095610176565b6040516100a29190611a6d565b60405180910390f35b3480156100b757600080fd5b506100cb6100c6366004611299565b61017c565b005b3480156100d957600080fd5b506100e26102eb565b6040516100a29190611607565b3480156100fb57600080fd5b506100cb61010a3660046112c9565b6102fa565b34801561011b57600080fd5b506100cb61012a366004611340565b61058f565b6100cb61013d3660046110fd565b610686565b34801561014e57600080fd5b5061016261015d366004611299565b610972565b6040516100a29897969594939291906114cd565b60015490565b60006001828154811061018b57fe5b60009182526020822060079091020191506006820154600160a01b900460ff1660028111156101b657fe5b146101dc5760405162461bcd60e51b81526004016101d39061176f565b60405180910390fd5b60068101546001600160a01b031633146102085760405162461bcd60e51b81526004016101d390611912565b805461021c906001600160a01b03166109d8565b15610257576102523361024083600401548460020154610a1290919063ffffffff16565b83546001600160a01b03169190610a3e565b6102a7565b60028101548154610275916001600160a01b03909116903390610a3e565b6004810154604051339180156108fc02916000818181858888f193505050501580156102a5573d6000803e3d6000fd5b505b60068101805460ff60a01b1916600160a11b17905560405182907f2e1897b0591d764356194f7a795238a87c1987c7a877568e50d829d547c92b9790600090a25050565b6000546001600160a01b031681565b60006001848154811061030957fe5b60009182526020822060079091020191506006820154600160a01b900460ff16600281111561033457fe5b146103515760405162461bcd60e51b81526004016101d3906116fa565b42816005015410156103755760405162461bcd60e51b81526004016101d3906117b4565b600061037f610efa565b606061038e8560048189611aab565b81019061039b919061116d565b92509250925083600301548260c0015110156103c95760405162461bcd60e51b81526004016101d39061187e565b835482516001600160a01b0390811691161480156103fb5750600184015460208301516001600160a01b039081169116145b801561041b5750600684015460608301516001600160a01b039081169116145b6104375760405162461bcd60e51b81526004016101d3906118db565b835460009061044e906001600160a01b03166109d8565b61045957600061045f565b84600201545b600080546040516348208d1960e11b815292935090916001600160a01b03909116906390411a3290849061049b90899089908990600401611527565b6020604051808303818588803b1580156104b457600080fd5b505af11580156104c8573d6000803e3d6000fd5b50505050506040513d601f19601f820116820180604052508101906104ed91906112b1565b905085600301548110156105135760405162461bcd60e51b81526004016101d390611665565b60068601805460ff60a01b1916600160a01b1790556004860154604051339180156108fc02916000818181858888f19350505050158015610558573d6000803e3d6000fd5b5060405189907fddb556f1d2c1ec821e910b019d3685b229db152a0ecd517ca7e24b8bd713928990600090a2505050505050505050565b428082019081116105b25760405162461bcd60e51b81526004016101d390611a21565b6000600185815481106105c157fe5b60009182526020822060079091020191506006820154600160a01b900460ff1660028111156105ec57fe5b146106095760405162461bcd60e51b81526004016101d3906119dc565b60068101546001600160a01b031633146106355760405162461bcd60e51b81526004016101d390611912565b600381018490556005810182905560405185907f40c2d32ec54ffac45999120b79eb2516538010ed69ffd59c3f8a184d83b1309e906106779087908690611a76565b60405180910390a25050505050565b428082019081116106a95760405162461bcd60e51b81526004016101d390611a21565b85856106bd6001600160a01b0383166109d8565b6106c85760006106ca565b855b34116106e85760405162461bcd60e51b81526004016101d3906117fa565b60006106fc836001600160a01b03166109d8565b6107065734610710565b6107103488610aa7565b9050610724836001600160a01b03166109d8565b6107575761073d6001600160a01b03841633308a610ae9565b600054610757906001600160a01b03858116911689610b47565b61075f610f7a565b5060408051610100810182526001600160a01b038581168252848116602083019081529282018a8152606083018a81526080840186815260a085018a81523360c08701908152600060e0880181815260018054808201825592528851600783027fb10e2d527612073b26eecdfd717e6a320cf44b4afac2b0732d9fcbe2b7fa0cf681018054928b166001600160a01b03199384161781559b517fb10e2d527612073b26eecdfd717e6a320cf44b4afac2b0732d9fcbe2b7fa0cf782018054918c1691841691909117905597517fb10e2d527612073b26eecdfd717e6a320cf44b4afac2b0732d9fcbe2b7fa0cf889015595517fb10e2d527612073b26eecdfd717e6a320cf44b4afac2b0732d9fcbe2b7fa0cf988015593517fb10e2d527612073b26eecdfd717e6a320cf44b4afac2b0732d9fcbe2b7fa0cfa87015591517fb10e2d527612073b26eecdfd717e6a320cf44b4afac2b0732d9fcbe2b7fa0cfb860155517fb10e2d527612073b26eecdfd717e6a320cf44b4afac2b0732d9fcbe2b7fa0cfc90940180549490951693909216929092178084559151939490938593919290919060ff60a01b1916600160a01b83600281111561091c57fe5b02179055505050807f09b75c2d72b59cb333687ec1a60317c46ff81b30e3d7d1e91d8cac242a0e7c878c8c8c878d8c60405161095d9695949392919061147e565b60405180910390a25050505050505050505050565b6001818154811061097f57fe5b600091825260209091206007909102018054600182015460028301546003840154600485015460058601546006909601546001600160a01b0395861697509385169592949193909291811690600160a01b900460ff1688565b60006001600160a01b0382161580610a0c57506001600160a01b03821673eeeeeeeeeeeeeeeeeeeeeeeeeeeeeeeeeeeeeeee145b92915050565b600082820183811015610a375760405162461bcd60e51b81526004016101d39061162e565b9392505050565b8015610aa257610a4d836109d8565b15610a8e576040516001600160a01b0383169082156108fc029083906000818181858888f19350505050158015610a88573d6000803e3d6000fd5b50610aa2565b610aa26001600160a01b0384168383610c46565b505050565b6000610a3783836040518060400160405280601e81526020017f536166654d6174683a207375627472616374696f6e206f766572666c6f770000815250610c65565b610b41846323b872dd60e01b858585604051602401610b0a9392919061145a565b60408051601f198184030181529190526020810180516001600160e01b03166001600160e01b031990931692909217909152610c91565b50505050565b610b50836109d8565b15610b6d5760405162461bcd60e51b81526004016101d390611740565b80610b8c57610b876001600160a01b038416836000610d20565b610aa2565b604051636eb1769f60e11b81526000906001600160a01b0385169063dd62ed3e90610bbd9030908790600401611440565b60206040518083038186803b158015610bd557600080fd5b505afa158015610be9573d6000803e3d6000fd5b505050506040513d601f19601f82011682018060405250810190610c0d91906112b1565b905081811015610b41578015610c3257610c326001600160a01b038516846000610d20565b610b416001600160a01b0385168484610d20565b610aa28363a9059cbb60e01b8484604051602401610b0a9291906114b4565b60008184841115610c895760405162461bcd60e51b81526004016101d3919061161b565b505050900390565b6060610ce6826040518060400160405280602081526020017f5361666545524332303a206c6f772d6c6576656c2063616c6c206661696c6564815250856001600160a01b0316610de39092919063ffffffff16565b805190915015610aa25780806020019051810190610d04919061114d565b610aa25760405162461bcd60e51b81526004016101d39061193c565b801580610da85750604051636eb1769f60e11b81526001600160a01b0384169063dd62ed3e90610d569030908690600401611440565b60206040518083038186803b158015610d6e57600080fd5b505afa158015610d82573d6000803e3d6000fd5b505050506040513d601f19601f82011682018060405250810190610da691906112b1565b155b610dc45760405162461bcd60e51b81526004016101d390611986565b610aa28363095ea7b360e01b8484604051602401610b0a9291906114b4565b6060610df28484600085610dfa565b949350505050565b606082471015610e1c5760405162461bcd60e51b81526004016101d3906116b4565b610e2585610ebb565b610e415760405162461bcd60e51b81526004016101d390611847565b60006060866001600160a01b03168587604051610e5e9190611424565b60006040518083038185875af1925050503d8060008114610e9b576040519150601f19603f3d011682016040523d82523d6000602084013e610ea0565b606091505b5091509150610eb0828286610ec1565b979650505050505050565b3b151590565b60608315610ed0575081610a37565b825115610ee05782518084602001fd5b8160405162461bcd60e51b81526004016101d3919061161b565b60405180610140016040528060006001600160a01b0316815260200160006001600160a01b0316815260200160006001600160a01b0316815260200160006001600160a01b031681526020016000815260200160008152602001600081526020016000815260200160006001600160a01b03168152602001606081525090565b6040805161010081018252600080825260208201819052918101829052606081018290526080810182905260a0810182905260c081018290529060e082015290565b8035610a0c81611aff565b600082601f830112610fd7578081fd5b813567ffffffffffffffff80821115610fee578283fd5b6020610ffd8182850201611a84565b838152935080840185820160005b858110156110885781358801608080601f19838d0301121561102c57600080fd5b61103581611a84565b828701358152604080840135828901526060808501358284015292840135928984111561106157600080fd5b61106f8e8a86880101611094565b908301525085525050918301919083019060010161100b565b50505050505092915050565b600082601f8301126110a4578081fd5b813567ffffffffffffffff8111156110ba578182fd5b6110cd601f8201601f1916602001611a84565b91508082528360208285010111156110e457600080fd5b8060208401602084013760009082016020015292915050565b600080600080600060a08688031215611114578081fd5b853561111f81611aff565b9450602086013561112f81611aff565b94979496505050506040830135926060810135926080909101359150565b60006020828403121561115e578081fd5b81518015158114610a37578182fd5b600080600060608486031215611181578283fd5b833561118c81611aff565b9250602084013567ffffffffffffffff808211156111a8578384fd5b81860191506101408083890312156111be578485fd5b6111c781611a84565b90506111d38884610fbc565b81526111e28860208501610fbc565b60208201526111f48860408501610fbc565b60408201526112068860608501610fbc565b60608201526080830135608082015260a083013560a082015260c083013560c082015260e083013560e082015261010061124289828601610fbc565b908201526101208381013583811115611259578687fd5b6112658a828701611094565b828401525050809450506040860135915080821115611282578283fd5b5061128f86828701610fc7565b9150509250925092565b6000602082840312156112aa578081fd5b5035919050565b6000602082840312156112c2578081fd5b5051919050565b6000806000604084860312156112dd578283fd5b83359250602084013567ffffffffffffffff808211156112fb578384fd5b818601915086601f83011261130e578384fd5b81358181111561131c578485fd5b87602082850101111561132d578485fd5b6020830194508093505050509250925092565b600080600060608486031215611354578283fd5b505081359360208301359350604090920135919050565b6001600160a01b03169052565b60008282518085526020808601955080818302840101818601855b848110156113eb57858303601f190189528151805184528481015185850152604080820151908501526060908101516080918501829052906113d7818601836113f8565b9a86019a9450505090830190600101611393565b5090979650505050505050565b60008151808452611410816020860160208601611ad3565b601f01601f19169290920160200192915050565b60008251611436818460208701611ad3565b9190910192915050565b6001600160a01b0392831681529116602082015260400190565b6001600160a01b039384168152919092166020820152604081019190915260600190565b6001600160a01b03968716815294909516602085015260408401929092526060830152608082015260a081019190915260c00190565b6001600160a01b03929092168252602082015260400190565b6001600160a01b038981168252888116602083015260408201889052606082018790526080820186905260a08201859052831660c082015261010081016003831061151457fe5b8260e08301529998505050505050505050565b600060018060a01b03851682526060602083015261154960608301855161136b565b602084015161155b608084018261136b565b50604084015161156e60a084018261136b565b50606084015161158160c084018261136b565b50608084015160e083015260a0840151610100818185015260c08601519150610120828186015260e0870151925061014083818701528288015193506115cb61016087018561136b565b818801519350806101808701525050506115e96101a08401826113f8565b905082810360408401526115fd8185611378565b9695505050505050565b6001600160a01b0391909116815260200190565b600060208252610a3760208301846113f8565b6020808252601b908201527f536166654d6174683a206164646974696f6e206f766572666c6f770000000000604082015260600190565b6020808252602f908201527f72657475726e416d6f756e74206973206c657373207468616e206f726465722e60408201526e1b5a5b94995d1d5c9b905b5bdd5b9d608a1b606082015260800190565b60208082526026908201527f416464726573733a20696e73756666696369656e742062616c616e636520666f6040820152651c8818d85b1b60d21b606082015260800190565b60208082526026908201527f4f726465723a2043616e2065786563757465206f6e6c792070656e64696e67206040820152656f726465727360d01b606082015260800190565b602080825260159082015274082e0e0e4deecca40c6c2d8d8cac840dedc408aa89605b1b604082015260600190565b60208082526025908201527f4f726465723a2043616e20726566756e64206f6e6c792070656e64696e67206f604082015264726465727360d81b606082015260800190565b60208082526026908201527f4f726465723a2043616e6e6f74206578656375746520616e20657870697265646040820152651037b93232b960d11b606082015260800190565b6020808252602d908201527f547820696d706f737369626c653a204e6f7420656e6f7567682066756e64732060408201526c1d1bc81c185e481c995dd85c99609a1b606082015260800190565b6020808252601d908201527f416464726573733a2063616c6c20746f206e6f6e2d636f6e7472616374000000604082015260600190565b60208082526038908201527f646573632e67756172616e74656564416d6f756e74206973206c65737320746860408201527f616e206f726465722e6d696e52657475726e416d6f756e740000000000000000606082015260800190565b60208082526017908201527f43616c6c64617461206973206e6f7420636f7272656374000000000000000000604082015260600190565b60208082526010908201526f2bb937b7339036b9b39739b2b73232b960811b604082015260600190565b6020808252602a908201527f5361666545524332303a204552433230206f7065726174696f6e20646964206e6040820152691bdd081cdd58d8d9595960b21b606082015260800190565b60208082526036908201527f5361666545524332303a20617070726f76652066726f6d206e6f6e2d7a65726f60408201527520746f206e6f6e2d7a65726f20616c6c6f77616e636560501b606082015260800190565b60208082526025908201527f4f726465723a2043616e20757064617465206f6e6c792070656e64696e67206f604082015264726465727360d81b606082015260800190565b6020808252602c908201527f4f726465723a2045787069726174696f6e206973206265666f7265206375727260408201526b656e74206461746574696d6560a01b606082015260800190565b90815260200190565b918252602082015260400190565b60405181810167ffffffffffffffff81118282101715611aa357600080fd5b604052919050565b60008085851115611aba578182fd5b83861115611ac6578182fd5b5050820193919092039150565b60005b83811015611aee578181015183820152602001611ad6565b83811115610b415750506000910152565b6001600160a01b0381168114611b1457600080fd5b5056fea26469706673582212202061de1dfb6329e0b5442cbd1e65abe96d079d9b5cb291f248b6760ceb4b5abe64736f6c634300060c0033",
  "immutableReferences": {},
  "source": "// SPDX-License-Identifier: MIT\n\npragma solidity >=0.4.25 <0.7.0;\npragma experimental ABIEncoderV2;\n\nimport \"./UniERC20.sol\";\nimport \"./IOneInchExchange.sol\";\n\ncontract OneInchOrderProxy {\n  using SafeMath for uint256;\n  using SafeERC20 for IERC20;\n  using UniERC20 for IERC20;\n\n  enum State { Pending, Fulfilled, Refunded }\n  struct Order {\n    IERC20 srcToken;\n    IERC20 dstToken;\n    uint256 srcAmount;\n    uint256 minReturnAmount;\n    uint256 execReward;\n    uint256 expiration;\n    address payable beneficiary;\n    State state;\n  }\n\n  IOneInchExchange public oneInchExchange;\n\n  Order[] public orders;\n\n  event Create(uint256 indexed id, address srcToken, address dstToken, uint256 srcAmount, uint256 execReward, uint256 minReturnAmount, uint256 expiration);\n  event Update(uint256 indexed id, uint256 minReturnAmount, uint256 expiration);\n  event Execute(uint256 indexed id);\n  event Refund(uint256 indexed id);\n\n  constructor(\n    address _oneInchAddr\n  ) public {\n    oneInchExchange = IOneInchExchange(_oneInchAddr);\n\t}\n\n  /**\n   * @dev - Create an order to be executed on OneInch before expiration.\n   * If `srcTokenAddr` is ETH, `srcAmount` has to be included in msg.value.\n   * If `srcTokenAddr` isn't ETH, make sure that msg.sender has approved \n   * to spend `srcTokenAddr` in `srcAmount` amount.\n   * In both cases, one should provide additional ETH in msg.value that\n   * would serve as a reward for the one who calls `execute(orderId,calldata)`.\n   *\n   * @param srcTokenAddr - input ERC20 address\n   * @param dstTokenAddr - target ERC20 address\n   * @param srcAmount - amount of input ERC20 to be swapped (in minimal divisible units)\n   * @param minReturnAmount - min expected amount of target ERC20 (in minimal divisible units)\n   * @param period - period in seconds after which order cannot be executed\n   */\n  function create(\n    address srcTokenAddr,\n    address dstTokenAddr,\n    uint256 srcAmount,\n    uint256 minReturnAmount,\n    uint256 period\n  ) external payable {\n    uint256 expiration = block.timestamp + period;\n    require(expiration > block.timestamp, \"Order: Expiration is before current datetime\");\n\n    IERC20 srcToken = IERC20(srcTokenAddr);\n    IERC20 dstToken = IERC20(dstTokenAddr);\n\n    require(\n      msg.value > (srcToken.isETH() ? srcAmount : 0),\n      \"Tx impossible: Not enough funds to pay reward\"\n    );\n    uint256 execReward = srcToken.isETH() ? msg.value.sub(srcAmount) : msg.value;\n\n    if (!srcToken.isETH()) {\n      srcToken.safeTransferFrom(msg.sender, address(this), srcAmount);\n      srcToken.uniApprove(address(oneInchExchange), srcAmount);\n    }\n\n    Order memory order = Order(\n      srcToken,\n      dstToken,\n      srcAmount,\n      minReturnAmount,\n      execReward,\n      expiration,\n      msg.sender,\n      State.Pending\n    );\n    uint256 orderId = orders.length;\n    orders.push(order);\n\n    emit Create(orderId, srcTokenAddr, dstTokenAddr, srcAmount, execReward, minReturnAmount, expiration);\n  }\n\n  /**\n   * @dev - Update `minReturnAmount` and `expiration` of an existing order.\n   *\n   * @param minReturnAmount - min number of dstToken to be received\n   * @param period - period in seconds after which order cannot be executed\n   */\n  function update(\n    uint256 orderId,\n    uint256 minReturnAmount,\n    uint256 period\n  ) external {\n    uint256 expiration = block.timestamp + period;\n    require(expiration > block.timestamp, \"Order: Expiration is before current datetime\");\n\n    Order storage order = orders[orderId];\n\n    require(order.state == State.Pending, \"Order: Can update only pending orders\");\n    require(msg.sender == order.beneficiary, \"Wrong msg.sender\");\n    \n    order.minReturnAmount = minReturnAmount;\n    order.expiration = expiration;\n\n    emit Update(orderId, order.minReturnAmount, order.expiration);\n  }\n\n  /**\n   * @dev - Execute order. On successful execution, msg.sender gets\n   * `execReward` provided by order's `beneficiary`.\n   *\n   * @param orderId - id of order\n   * @param oneInchCallData - data obtained from \"/swap\" endpoint of 1inch API\n   */\n  function execute(uint256 orderId, bytes calldata oneInchCallData) external {\n    Order storage order = orders[orderId];\n\n    require(\n      order.state == State.Pending,\n      \"Order: Can execute only pending orders\"\n    );\n    require(\n      order.expiration >= block.timestamp,\n      \"Order: Cannot execute an expired order\"\n    );\n\n    (IOneInchCaller caller, IOneInchExchange.SwapDescription memory desc, IOneInchCaller.CallDescription[] memory calls) = abi\n      .decode(oneInchCallData[4:], (IOneInchCaller, IOneInchExchange.SwapDescription, IOneInchCaller.CallDescription[]));\n\n    require(\n      desc.guaranteedAmount >= order.minReturnAmount,\n      \"desc.guaranteedAmount is less than order.minReturnAmount\"\n    );\n\n    require(\n      address(desc.srcToken) == address(order.srcToken) &&\n      address(desc.dstToken) == address(order.dstToken) &&\n      desc.dstReceiver == order.beneficiary,\n      \"Calldata is not correct\"\n    );\n\n    uint256 msgValue = order.srcToken.isETH() ? order.srcAmount : 0;\n\n    uint256 returnAmount = oneInchExchange.swap{ value: msgValue }(caller, desc, calls);\n\n    require(returnAmount >= order.minReturnAmount, \"returnAmount is less than order.minReturnAmount\");\n    order.state = State.Fulfilled;\n\n    msg.sender.transfer(order.execReward);\n    emit Execute(orderId);\n  }\n\n  /**\n   * @dev - Refund order's `beneficiary`.\n   *\n   * @param orderId - id of order\n   */\n  function refund(uint256 orderId) external {\n    Order storage order = orders[orderId];\n\n    require(order.state == State.Pending, \"Order: Can refund only pending orders\");\n    require(msg.sender == order.beneficiary, \"Wrong msg.sender\");\n\n    if (order.srcToken.isETH()) {\n      order.srcToken.uniTransfer(msg.sender, order.srcAmount.add(order.execReward));\n    }\n    else {\n      order.srcToken.uniTransfer(msg.sender, order.srcAmount);\n      msg.sender.transfer(order.execReward);\n    }\n\n    order.state = State.Refunded;\n    emit Refund(orderId);\n  }\n\n  /**\n   * @dev - Return number of all created orders.\n   */\n  function countOrders() external view returns(uint256) {\n    return orders.length;\n  }\n\n  receive() external payable {}\n}\n",
  "sourcePath": "/Users/bob/1inch-multisig-proxy/contracts/OneInchOrderProxy.sol",
  "compiler": {
    "name": "solc",
    "version": "0.6.12+commit.27d51765.Emscripten.clang"
  },
  "schemaVersion": "3.2.1",
  "updatedAt": "2020-12-24T18:23:37.685Z",
  "networkType": "ethereum",
  "devdoc": {
    "kind": "dev",
    "methods": {
      "countOrders()": {
        "details": "- Return number of all created orders."
      },
      "create(address,address,uint256,uint256,uint256)": {
        "details": "- Create an order to be executed on OneInch before expiration. If `srcTokenAddr` is ETH, `srcAmount` has to be included in msg.value. If `srcTokenAddr` isn't ETH, make sure that msg.sender has approved  to spend `srcTokenAddr` in `srcAmount` amount. In both cases, one should provide additional ETH in msg.value that would serve as a reward for the one who calls `execute(orderId,calldata)`.",
        "params": {
          "dstTokenAddr": "- target ERC20 address",
          "minReturnAmount": "- min expected amount of target ERC20 (in minimal divisible units)",
          "period": "- period in seconds after which order cannot be executed",
          "srcAmount": "- amount of input ERC20 to be swapped (in minimal divisible units)",
          "srcTokenAddr": "- input ERC20 address"
        }
      },
      "execute(uint256,bytes)": {
        "details": "- Execute order. On successful execution, msg.sender gets `execReward` provided by order's `beneficiary`.",
        "params": {
          "oneInchCallData": "- data obtained from \"/swap\" endpoint of 1inch API",
          "orderId": "- id of order"
        }
      },
      "refund(uint256)": {
        "details": "- Refund order's `beneficiary`.",
        "params": {
          "orderId": "- id of order"
        }
      },
      "update(uint256,uint256,uint256)": {
        "details": "- Update `minReturnAmount` and `expiration` of an existing order.",
        "params": {
          "minReturnAmount": "- min number of dstToken to be received",
          "period": "- period in seconds after which order cannot be executed"
        }
      }
    },
    "version": 1
  },
  "userdoc": {
    "kind": "user",
    "methods": {},
    "version": 1
  }
}