{
  "contractName": "OneInchMultisigProxy",
  "abi": [
    {
      "inputs": [
        {
          "internalType": "address",
          "name": "_oneInchAddr",
          "type": "address"
        }
      ],
      "stateMutability": "nonpayable",
      "type": "constructor"
    },
    {
      "anonymous": false,
      "inputs": [
        {
          "indexed": true,
          "internalType": "uint256",
          "name": "id",
          "type": "uint256"
        },
        {
          "indexed": false,
          "internalType": "address",
          "name": "srcToken",
          "type": "address"
        },
        {
          "indexed": false,
          "internalType": "address",
          "name": "dstToken",
          "type": "address"
        },
        {
          "indexed": false,
          "internalType": "uint256",
          "name": "srcAmount",
          "type": "uint256"
        },
        {
          "indexed": false,
          "internalType": "uint256",
          "name": "execReward",
          "type": "uint256"
        },
        {
          "indexed": false,
          "internalType": "uint256",
          "name": "minReturnAmount",
          "type": "uint256"
        },
        {
          "indexed": false,
          "internalType": "uint256",
          "name": "expiration",
          "type": "uint256"
        }
      ],
      "name": "Create",
      "type": "event"
    },
    {
      "anonymous": false,
      "inputs": [
        {
          "indexed": true,
          "internalType": "uint256",
          "name": "id",
          "type": "uint256"
        }
      ],
      "name": "Execute",
      "type": "event"
    },
    {
      "anonymous": false,
      "inputs": [
        {
          "indexed": true,
          "internalType": "uint256",
          "name": "id",
          "type": "uint256"
        }
      ],
      "name": "Refund",
      "type": "event"
    },
    {
      "anonymous": false,
      "inputs": [
        {
          "indexed": true,
          "internalType": "uint256",
          "name": "id",
          "type": "uint256"
        },
        {
          "indexed": false,
          "internalType": "uint256",
          "name": "minReturnAmount",
          "type": "uint256"
        },
        {
          "indexed": false,
          "internalType": "uint256",
          "name": "expiration",
          "type": "uint256"
        }
      ],
      "name": "Update",
      "type": "event"
    },
    {
      "inputs": [],
      "name": "_dstReceiver",
      "outputs": [
        {
          "internalType": "address",
          "name": "",
          "type": "address"
        }
      ],
      "stateMutability": "view",
      "type": "function",
      "constant": true
    },
    {
      "inputs": [],
      "name": "_guaranteedAmount",
      "outputs": [
        {
          "internalType": "uint256",
          "name": "",
          "type": "uint256"
        }
      ],
      "stateMutability": "view",
      "type": "function",
      "constant": true
    },
    {
      "inputs": [],
      "name": "_minReturnAmount",
      "outputs": [
        {
          "internalType": "uint256",
          "name": "",
          "type": "uint256"
        }
      ],
      "stateMutability": "view",
      "type": "function",
      "constant": true
    },
    {
      "inputs": [],
      "name": "oneInchExchange",
      "outputs": [
        {
          "internalType": "contract IOneInchExchange",
          "name": "",
          "type": "address"
        }
      ],
      "stateMutability": "view",
      "type": "function",
      "constant": true
    },
    {
      "inputs": [
        {
          "internalType": "uint256",
          "name": "",
          "type": "uint256"
        }
      ],
      "name": "orders",
      "outputs": [
        {
          "internalType": "contract IERC20",
          "name": "srcToken",
          "type": "address"
        },
        {
          "internalType": "contract IERC20",
          "name": "dstToken",
          "type": "address"
        },
        {
          "internalType": "uint256",
          "name": "srcAmount",
          "type": "uint256"
        },
        {
          "internalType": "uint256",
          "name": "minReturnAmount",
          "type": "uint256"
        },
        {
          "internalType": "uint256",
          "name": "execReward",
          "type": "uint256"
        },
        {
          "internalType": "uint256",
          "name": "expiration",
          "type": "uint256"
        },
        {
          "internalType": "address payable",
          "name": "beneficiary",
          "type": "address"
        },
        {
          "internalType": "enum OneInchMultisigProxy.State",
          "name": "state",
          "type": "uint8"
        }
      ],
      "stateMutability": "view",
      "type": "function",
      "constant": true
    },
    {
      "stateMutability": "payable",
      "type": "receive",
      "payable": true
    },
    {
      "inputs": [
        {
          "internalType": "address",
          "name": "srcTokenAddr",
          "type": "address"
        },
        {
          "internalType": "address",
          "name": "dstTokenAddr",
          "type": "address"
        },
        {
          "internalType": "uint256",
          "name": "srcAmount",
          "type": "uint256"
        },
        {
          "internalType": "uint256",
          "name": "minReturnAmount",
          "type": "uint256"
        },
        {
          "internalType": "uint256",
          "name": "period",
          "type": "uint256"
        }
      ],
      "name": "create",
      "outputs": [],
      "stateMutability": "payable",
      "type": "function",
      "payable": true
    },
    {
      "inputs": [
        {
          "internalType": "uint256",
          "name": "orderId",
          "type": "uint256"
        },
        {
          "internalType": "uint256",
          "name": "minReturnAmount",
          "type": "uint256"
        },
        {
          "internalType": "uint256",
          "name": "period",
          "type": "uint256"
        }
      ],
      "name": "update",
      "outputs": [],
      "stateMutability": "nonpayable",
      "type": "function"
    },
    {
      "inputs": [
        {
          "internalType": "uint256",
          "name": "orderId",
          "type": "uint256"
        },
        {
          "internalType": "bytes",
          "name": "oneInchCallData",
          "type": "bytes"
        }
      ],
      "name": "execute",
      "outputs": [],
      "stateMutability": "nonpayable",
      "type": "function"
    },
    {
      "inputs": [
        {
          "internalType": "uint256",
          "name": "orderId",
          "type": "uint256"
        }
      ],
      "name": "refund",
      "outputs": [],
      "stateMutability": "nonpayable",
      "type": "function"
    },
    {
      "inputs": [
        {
          "internalType": "bytes",
          "name": "oneInchCallData",
          "type": "bytes"
        }
      ],
      "name": "_decode_",
      "outputs": [],
      "stateMutability": "nonpayable",
      "type": "function"
    }
  ],
  "bytecode": "0x608060405234801561001057600080fd5b50604051611d11380380611d1183398101604081905261002f91610054565b600080546001600160a01b0319166001600160a01b0392909216919091179055610082565b600060208284031215610065578081fd5b81516001600160a01b038116811461007b578182fd5b9392505050565b611c80806100916000396000f3fe6080604052600436106100955760003560e01c806359efcb151161005957806359efcb15146101455780636a05425014610165578063891b1a00146101855780638eb70e8c14610198578063a85c38ef146101ad5761009c565b806320de622a146100a1578063278ecde1146100c35780633a6e525b146100e35780633c16a4ae1461010e578063577c7d0e146101305761009c565b3661009c57005b600080fd5b3480156100ad57600080fd5b506100c16100bc366004611290565b6101e1565b005b3480156100cf57600080fd5b506100c16100de3660046113fc565b61023d565b3480156100ef57600080fd5b506100f86103ac565b6040516101059190611ba0565b60405180910390f35b34801561011a57600080fd5b506101236103b2565b6040516101059190611573565b34801561013c57600080fd5b506100f86103c1565b34801561015157600080fd5b506100c161016036600461142c565b6103c7565b34801561017157600080fd5b506100c1610180366004611476565b61065c565b6100c1610193366004611220565b610753565b3480156101a457600080fd5b50610123610a3f565b3480156101b957600080fd5b506101cd6101c83660046113fc565b610a4e565b604051610105989796959493929190611614565b6101e9610fd6565b6101f68260048186611bde565b81019061020391906112d0565b506060810151600280546001600160a01b0319166001600160a01b0390921691909117905560c081015160035560a0015160045550505050565b60006001828154811061024c57fe5b60009182526020822060079091020191506006820154600160a01b900460ff16600281111561027757fe5b1461029d5760405162461bcd60e51b8152600401610294906118a2565b60405180910390fd5b60068101546001600160a01b031633146102c95760405162461bcd60e51b815260040161029490611a45565b80546102dd906001600160a01b0316610ab4565b15610318576103133361030183600401548460020154610aee90919063ffffffff16565b83546001600160a01b03169190610b1a565b610368565b60028101548154610336916001600160a01b03909116903390610b1a565b6004810154604051339180156108fc02916000818181858888f19350505050158015610366573d6000803e3d6000fd5b505b60068101805460ff60a01b1916600160a11b17905560405182907f2e1897b0591d764356194f7a795238a87c1987c7a877568e50d829d547c92b9790600090a25050565b60035481565b6000546001600160a01b031681565b60045481565b6000600184815481106103d657fe5b60009182526020822060079091020191506006820154600160a01b900460ff16600281111561040157fe5b1461041e5760405162461bcd60e51b81526004016102949061182d565b42816005015410156104425760405162461bcd60e51b8152600401610294906118e7565b600061044c610fd6565b606061045b8560048189611bde565b81019061046891906112d0565b92509250925083600301548260c0015110156104965760405162461bcd60e51b8152600401610294906119b1565b835482516001600160a01b0390811691161480156104c85750600184015460208301516001600160a01b039081169116145b80156104e85750600684015460608301516001600160a01b039081169116145b6105045760405162461bcd60e51b815260040161029490611a0e565b835460009061051b906001600160a01b0316610ab4565b61052657600061052c565b84600201545b600080546040516348208d1960e11b815292935090916001600160a01b03909116906390411a329084906105689089908990899060040161166e565b6020604051808303818588803b15801561058157600080fd5b505af1158015610595573d6000803e3d6000fd5b50505050506040513d601f19601f820116820180604052508101906105ba9190611414565b905085600301548110156105e05760405162461bcd60e51b815260040161029490611798565b60068601805460ff60a01b1916600160a01b1790556004860154604051339180156108fc02916000818181858888f19350505050158015610625573d6000803e3d6000fd5b5060405189907fddb556f1d2c1ec821e910b019d3685b229db152a0ecd517ca7e24b8bd713928990600090a2505050505050505050565b4280820190811161067f5760405162461bcd60e51b815260040161029490611b54565b60006001858154811061068e57fe5b60009182526020822060079091020191506006820154600160a01b900460ff1660028111156106b957fe5b146106d65760405162461bcd60e51b815260040161029490611b0f565b60068101546001600160a01b031633146107025760405162461bcd60e51b815260040161029490611a45565b600381018490556005810182905560405185907f40c2d32ec54ffac45999120b79eb2516538010ed69ffd59c3f8a184d83b1309e906107449087908690611ba9565b60405180910390a25050505050565b428082019081116107765760405162461bcd60e51b815260040161029490611b54565b858561078a6001600160a01b038316610ab4565b610795576000610797565b855b34116107b55760405162461bcd60e51b81526004016102949061192d565b60006107c9836001600160a01b0316610ab4565b6107d357346107dd565b6107dd3488610b83565b90506107f1836001600160a01b0316610ab4565b6108245761080a6001600160a01b03841633308a610bc5565b600054610824906001600160a01b03858116911689610c23565b61082c611056565b5060408051610100810182526001600160a01b038581168252848116602083019081529282018a8152606083018a81526080840186815260a085018a81523360c08701908152600060e0880181815260018054808201825592528851600783027fb10e2d527612073b26eecdfd717e6a320cf44b4afac2b0732d9fcbe2b7fa0cf681018054928b166001600160a01b03199384161781559b517fb10e2d527612073b26eecdfd717e6a320cf44b4afac2b0732d9fcbe2b7fa0cf782018054918c1691841691909117905597517fb10e2d527612073b26eecdfd717e6a320cf44b4afac2b0732d9fcbe2b7fa0cf889015595517fb10e2d527612073b26eecdfd717e6a320cf44b4afac2b0732d9fcbe2b7fa0cf988015593517fb10e2d527612073b26eecdfd717e6a320cf44b4afac2b0732d9fcbe2b7fa0cfa87015591517fb10e2d527612073b26eecdfd717e6a320cf44b4afac2b0732d9fcbe2b7fa0cfb860155517fb10e2d527612073b26eecdfd717e6a320cf44b4afac2b0732d9fcbe2b7fa0cfc90940180549490951693909216929092178084559151939490938593919290919060ff60a01b1916600160a01b8360028111156109e957fe5b02179055505050807f09b75c2d72b59cb333687ec1a60317c46ff81b30e3d7d1e91d8cac242a0e7c878c8c8c878d8c604051610a2a969594939291906115c5565b60405180910390a25050505050505050505050565b6002546001600160a01b031681565b60018181548110610a5b57fe5b600091825260209091206007909102018054600182015460028301546003840154600485015460058601546006909601546001600160a01b0395861697509385169592949193909291811690600160a01b900460ff1688565b60006001600160a01b0382161580610ae857506001600160a01b03821673eeeeeeeeeeeeeeeeeeeeeeeeeeeeeeeeeeeeeeee145b92915050565b600082820183811015610b135760405162461bcd60e51b815260040161029490611761565b9392505050565b8015610b7e57610b2983610ab4565b15610b6a576040516001600160a01b0383169082156108fc029083906000818181858888f19350505050158015610b64573d6000803e3d6000fd5b50610b7e565b610b7e6001600160a01b0384168383610d22565b505050565b6000610b1383836040518060400160405280601e81526020017f536166654d6174683a207375627472616374696f6e206f766572666c6f770000815250610d41565b610c1d846323b872dd60e01b858585604051602401610be6939291906115a1565b60408051601f198184030181529190526020810180516001600160e01b03166001600160e01b031990931692909217909152610d6d565b50505050565b610c2c83610ab4565b15610c495760405162461bcd60e51b815260040161029490611873565b80610c6857610c636001600160a01b038416836000610dfc565b610b7e565b604051636eb1769f60e11b81526000906001600160a01b0385169063dd62ed3e90610c999030908790600401611587565b60206040518083038186803b158015610cb157600080fd5b505afa158015610cc5573d6000803e3d6000fd5b505050506040513d601f19601f82011682018060405250810190610ce99190611414565b905081811015610c1d578015610d0e57610d0e6001600160a01b038516846000610dfc565b610c1d6001600160a01b0385168484610dfc565b610b7e8363a9059cbb60e01b8484604051602401610be69291906115fb565b60008184841115610d655760405162461bcd60e51b8152600401610294919061174e565b505050900390565b6060610dc2826040518060400160405280602081526020017f5361666545524332303a206c6f772d6c6576656c2063616c6c206661696c6564815250856001600160a01b0316610ebf9092919063ffffffff16565b805190915015610b7e5780806020019051810190610de09190611270565b610b7e5760405162461bcd60e51b815260040161029490611a6f565b801580610e845750604051636eb1769f60e11b81526001600160a01b0384169063dd62ed3e90610e329030908690600401611587565b60206040518083038186803b158015610e4a57600080fd5b505afa158015610e5e573d6000803e3d6000fd5b505050506040513d601f19601f82011682018060405250810190610e829190611414565b155b610ea05760405162461bcd60e51b815260040161029490611ab9565b610b7e8363095ea7b360e01b8484604051602401610be69291906115fb565b6060610ece8484600085610ed6565b949350505050565b606082471015610ef85760405162461bcd60e51b8152600401610294906117e7565b610f0185610f97565b610f1d5760405162461bcd60e51b81526004016102949061197a565b60006060866001600160a01b03168587604051610f3a9190611557565b60006040518083038185875af1925050503d8060008114610f77576040519150601f19603f3d011682016040523d82523d6000602084013e610f7c565b606091505b5091509150610f8c828286610f9d565b979650505050505050565b3b151590565b60608315610fac575081610b13565b825115610fbc5782518084602001fd5b8160405162461bcd60e51b8152600401610294919061174e565b60405180610140016040528060006001600160a01b0316815260200160006001600160a01b0316815260200160006001600160a01b0316815260200160006001600160a01b031681526020016000815260200160008152602001600081526020016000815260200160006001600160a01b03168152602001606081525090565b6040805161010081018252600080825260208201819052918101829052606081018290526080810182905260a0810182905260c081018290529060e082015290565b8035610ae881611c32565b600082601f8301126110b3578081fd5b813567ffffffffffffffff808211156110ca578283fd5b60206110d98182850201611bb7565b838152935080840185820160005b858110156111645781358801608080601f19838d0301121561110857600080fd5b61111181611bb7565b828701358152604080840135828901526060808501358284015292840135928984111561113d57600080fd5b61114b8e8a868801016111b7565b90830152508552505091830191908301906001016110e7565b50505050505092915050565b60008083601f840112611181578081fd5b50813567ffffffffffffffff811115611198578182fd5b6020830191508360208285010111156111b057600080fd5b9250929050565b600082601f8301126111c7578081fd5b813567ffffffffffffffff8111156111dd578182fd5b6111f0601f8201601f1916602001611bb7565b915080825283602082850101111561120757600080fd5b8060208401602084013760009082016020015292915050565b600080600080600060a08688031215611237578081fd5b853561124281611c32565b9450602086013561125281611c32565b94979496505050506040830135926060810135926080909101359150565b600060208284031215611281578081fd5b81518015158114610b13578182fd5b600080602083850312156112a2578182fd5b823567ffffffffffffffff8111156112b8578283fd5b6112c485828601611170565b90969095509350505050565b6000806000606084860312156112e4578283fd5b83356112ef81611c32565b9250602084013567ffffffffffffffff8082111561130b578384fd5b8186019150610140808389031215611321578485fd5b61132a81611bb7565b90506113368884611098565b81526113458860208501611098565b60208201526113578860408501611098565b60408201526113698860608501611098565b60608201526080830135608082015260a083013560a082015260c083013560c082015260e083013560e08201526101006113a589828601611098565b9082015261012083810135838111156113bc578687fd5b6113c88a8287016111b7565b8284015250508094505060408601359150808211156113e5578283fd5b506113f2868287016110a3565b9150509250925092565b60006020828403121561140d578081fd5b5035919050565b600060208284031215611425578081fd5b5051919050565b600080600060408486031215611440578283fd5b83359250602084013567ffffffffffffffff81111561145d578283fd5b61146986828701611170565b9497909650939450505050565b60008060006060848603121561148a578283fd5b505081359360208301359350604090920135919050565b6001600160a01b03169052565b6000815180845260208085018081965082840281019150828601855b8581101561151e57828403895281518051855285810151868601526040808201519086015260609081015160809186018290529061150a8187018361152b565b9a87019a95505050908401906001016114ca565b5091979650505050505050565b60008151808452611543816020860160208601611c06565b601f01601f19169290920160200192915050565b60008251611569818460208701611c06565b9190910192915050565b6001600160a01b0391909116815260200190565b6001600160a01b0392831681529116602082015260400190565b6001600160a01b039384168152919092166020820152604081019190915260600190565b6001600160a01b03968716815294909516602085015260408401929092526060830152608082015260a081019190915260c00190565b6001600160a01b03929092168252602082015260400190565b6001600160a01b038981168252888116602083015260408201889052606082018790526080820186905260a08201859052831660c082015261010081016003831061165b57fe5b8260e08301529998505050505050505050565b600060018060a01b0385168252606060208301526116906060830185516114a1565b60208401516116a260808401826114a1565b5060408401516116b560a08401826114a1565b5060608401516116c860c08401826114a1565b50608084015160e083015260a0840151610100818185015260c08601519150610120828186015260e0870151925061014083818701528288015193506117126101608701856114a1565b818801519350806101808701525050506117306101a084018261152b565b9050828103604084015261174481856114ae565b9695505050505050565b600060208252610b13602083018461152b565b6020808252601b908201527f536166654d6174683a206164646974696f6e206f766572666c6f770000000000604082015260600190565b6020808252602f908201527f72657475726e416d6f756e74206973206c657373207468616e206f726465722e60408201526e1b5a5b94995d1d5c9b905b5bdd5b9d608a1b606082015260800190565b60208082526026908201527f416464726573733a20696e73756666696369656e742062616c616e636520666f6040820152651c8818d85b1b60d21b606082015260800190565b60208082526026908201527f4f726465723a2043616e2065786563757465206f6e6c792070656e64696e67206040820152656f726465727360d01b606082015260800190565b602080825260159082015274082e0e0e4deecca40c6c2d8d8cac840dedc408aa89605b1b604082015260600190565b60208082526025908201527f4f726465723a2043616e20726566756e64206f6e6c792070656e64696e67206f604082015264726465727360d81b606082015260800190565b60208082526026908201527f4f726465723a2043616e6e6f74206578656375746520616e20657870697265646040820152651037b93232b960d11b606082015260800190565b6020808252602d908201527f547820696d706f737369626c653a204e6f7420656e6f7567682066756e64732060408201526c1d1bc81c185e481c995dd85c99609a1b606082015260800190565b6020808252601d908201527f416464726573733a2063616c6c20746f206e6f6e2d636f6e7472616374000000604082015260600190565b60208082526038908201527f646573632e67756172616e74656564416d6f756e74206973206c65737320746860408201527f616e206f726465722e6d696e52657475726e416d6f756e740000000000000000606082015260800190565b60208082526017908201527f43616c6c64617461206973206e6f7420636f7272656374000000000000000000604082015260600190565b60208082526010908201526f2bb937b7339036b9b39739b2b73232b960811b604082015260600190565b6020808252602a908201527f5361666545524332303a204552433230206f7065726174696f6e20646964206e6040820152691bdd081cdd58d8d9595960b21b606082015260800190565b60208082526036908201527f5361666545524332303a20617070726f76652066726f6d206e6f6e2d7a65726f60408201527520746f206e6f6e2d7a65726f20616c6c6f77616e636560501b606082015260800190565b60208082526025908201527f4f726465723a2043616e20757064617465206f6e6c792070656e64696e67206f604082015264726465727360d81b606082015260800190565b6020808252602c908201527f4f726465723a2045787069726174696f6e206973206265666f7265206375727260408201526b656e74206461746574696d6560a01b606082015260800190565b90815260200190565b918252602082015260400190565b60405181810167ffffffffffffffff81118282101715611bd657600080fd5b604052919050565b60008085851115611bed578182fd5b83861115611bf9578182fd5b5050820193919092039150565b60005b83811015611c21578181015183820152602001611c09565b83811115610c1d5750506000910152565b6001600160a01b0381168114611c4757600080fd5b5056fea26469706673582212208971602d80655ee004314b13ada3bf5c2757d40e74fd1e925f770bca9b92809964736f6c634300060c0033",
  "immutableReferences": {},
  "source": "// SPDX-License-Identifier: MIT\n\npragma solidity >=0.4.25 <0.7.0;\npragma experimental ABIEncoderV2;\n\nimport \"./UniERC20.sol\";\nimport \"./IOneInchExchange.sol\";\n\ncontract OneInchMultisigProxy {\n  using SafeMath for uint256;\n  using SafeERC20 for IERC20;\n  using UniERC20 for IERC20;\n\n  enum State { Pending, Fulfilled, Refunded }\n  struct Order {\n    IERC20 srcToken;\n    IERC20 dstToken;\n    uint256 srcAmount;\n    uint256 minReturnAmount;\n    uint256 execReward;\n    uint256 expiration;\n    address payable beneficiary;\n    State state;\n  }\n\n  IOneInchExchange public oneInchExchange;\n\n  Order[] public orders;\n\n  event Create(uint256 indexed id, address srcToken, address dstToken, uint256 srcAmount, uint256 execReward, uint256 minReturnAmount, uint256 expiration);\n  event Update(uint256 indexed id, uint256 minReturnAmount, uint256 expiration);\n  event Execute(uint256 indexed id);\n  event Refund(uint256 indexed id);\n\n  address public _dstReceiver;\n  uint256 public _guaranteedAmount;\n  uint256 public _minReturnAmount;\n\n  constructor(\n    address _oneInchAddr\n  ) public {\n    oneInchExchange = IOneInchExchange(_oneInchAddr);\n\t}\n\n  /**\n   * @dev - Create an order to be executed on OneInch before expiration.\n   * If `srcTokenAddr` is ETH, `srcAmount` has to be included in msg.value.\n   * If `srcTokenAddr` isn't ETH, make sure that msg.sender has approved \n   * to spend `srcTokenAddr` in `srcAmount` amount.\n   * In both cases, one should provide additional ETH in msg.value that\n   * would serve as a reward for the one who calls `execute(orderId,calldata)`.\n   *\n   * @param srcTokenAddr - address of token to swap from\n   * @param dstTokenAddr - address of token to swap to\n   * @param srcAmount - amount of srcToken in minimal divisible units\n   * @param minReturnAmount - min number of dstToken to be received\n   * @param period - period in seconds after which order cannot be executed\n   */\n  function create(\n    address srcTokenAddr,\n    address dstTokenAddr,\n    uint256 srcAmount,\n    uint256 minReturnAmount,\n    uint256 period\n  ) external payable {\n    uint256 expiration = block.timestamp + period;\n    require(expiration > block.timestamp, \"Order: Expiration is before current datetime\");\n\n    IERC20 srcToken = IERC20(srcTokenAddr);\n    IERC20 dstToken = IERC20(dstTokenAddr);\n\n    require(\n      msg.value > (srcToken.isETH() ? srcAmount : 0),\n      \"Tx impossible: Not enough funds to pay reward\"\n    );\n    uint256 execReward = srcToken.isETH() ? msg.value.sub(srcAmount) : msg.value;\n\n    if (!srcToken.isETH()) {\n      srcToken.safeTransferFrom(msg.sender, address(this), srcAmount);\n      srcToken.uniApprove(address(oneInchExchange), srcAmount);\n    }\n\n    Order memory order = Order(\n      srcToken,\n      dstToken,\n      srcAmount,\n      minReturnAmount,\n      execReward,\n      expiration,\n      msg.sender,\n      State.Pending\n    );\n    uint256 orderId = orders.length;\n    orders.push(order);\n\n    emit Create(orderId, srcTokenAddr, dstTokenAddr, srcAmount, execReward, minReturnAmount, expiration);\n  }\n\n  /**\n   * @dev - Update `minReturnAmount` and `expiration` of an existing order.\n   *\n   * @param minReturnAmount - min number of dstToken to be received\n   * @param period - period in seconds after which order cannot be executed\n   */\n  function update(\n    uint256 orderId,\n    uint256 minReturnAmount,\n    uint256 period\n  ) external {\n    uint256 expiration = block.timestamp + period;\n    require(expiration > block.timestamp, \"Order: Expiration is before current datetime\");\n\n    Order storage order = orders[orderId];\n\n    require(order.state == State.Pending, \"Order: Can update only pending orders\");\n    require(msg.sender == order.beneficiary, \"Wrong msg.sender\");\n    \n    order.minReturnAmount = minReturnAmount;\n    order.expiration = expiration;\n\n    emit Update(orderId, order.minReturnAmount, order.expiration);\n  }\n\n  /**\n   * @dev - Execute order. On successful execution, msg.sender gets\n   * `execReward` provided by order's `beneficiary`.\n   *\n   * @param orderId - id of order\n   * @param oneInchCallData - data obtained from \"/swap\" endpoint of 1inch API\n   */\n  function execute(uint256 orderId, bytes calldata oneInchCallData) external {\n    Order storage order = orders[orderId];\n\n    require(\n      order.state == State.Pending,\n      \"Order: Can execute only pending orders\"\n    );\n    require(\n      order.expiration >= block.timestamp,\n      \"Order: Cannot execute an expired order\"\n    );\n\n    (IOneInchCaller caller, IOneInchExchange.SwapDescription memory desc, IOneInchCaller.CallDescription[] memory calls) = abi\n      .decode(oneInchCallData[4:], (IOneInchCaller, IOneInchExchange.SwapDescription, IOneInchCaller.CallDescription[]));\n\n    require(\n      desc.guaranteedAmount >= order.minReturnAmount,\n      \"desc.guaranteedAmount is less than order.minReturnAmount\"\n    );\n\n    require(\n      address(desc.srcToken) == address(order.srcToken) &&\n      address(desc.dstToken) == address(order.dstToken) &&\n      desc.dstReceiver == order.beneficiary,\n      \"Calldata is not correct\"\n    );\n\n    uint256 msgValue = order.srcToken.isETH() ? order.srcAmount : 0;\n\n    uint256 returnAmount = oneInchExchange.swap{ value: msgValue }(caller, desc, calls);\n\n    require(returnAmount >= order.minReturnAmount, \"returnAmount is less than order.minReturnAmount\");\n    order.state = State.Fulfilled;\n\n    msg.sender.transfer(order.execReward);\n    emit Execute(orderId);\n  }\n\n  /**\n   * @dev - Refund order's `beneficiary`.\n   *\n   * @param orderId - id of order\n   */\n  function refund(uint256 orderId) external {\n    Order storage order = orders[orderId];\n\n    require(order.state == State.Pending, \"Order: Can refund only pending orders\");\n    require(msg.sender == order.beneficiary, \"Wrong msg.sender\");\n\n    if (order.srcToken.isETH()) {\n      order.srcToken.uniTransfer(msg.sender, order.srcAmount.add(order.execReward));\n    }\n    else {\n      order.srcToken.uniTransfer(msg.sender, order.srcAmount);\n      msg.sender.transfer(order.execReward);\n    }\n\n    order.state = State.Refunded;\n    emit Refund(orderId);\n  }\n\n  function _decode_(bytes calldata oneInchCallData) external {\n    (,IOneInchExchange.SwapDescription memory desc,) = abi\n      .decode(oneInchCallData[4:], (IOneInchCaller, IOneInchExchange.SwapDescription, IOneInchCaller.CallDescription[]));\n\n    _dstReceiver = desc.dstReceiver;\n    _guaranteedAmount = desc.guaranteedAmount;\n    _minReturnAmount = desc.minReturnAmount;\n  }\n\n  receive() external payable {}\n}\n",
  "sourcePath": "/Users/bob/1inch-multisig-proxy/contracts/OneInchMultisigProxy.sol",
  "compiler": {
    "name": "solc",
    "version": "0.6.12+commit.27d51765.Emscripten.clang"
  },
  "schemaVersion": "3.2.1",
  "updatedAt": "2020-12-19T14:19:40.470Z",
  "networkType": "ethereum",
  "devdoc": {
    "kind": "dev",
    "methods": {
      "create(address,address,uint256,uint256,uint256)": {
        "details": "- Create an order to be executed on OneInch before expiration. If `srcTokenAddr` is ETH, `srcAmount` has to be included in msg.value. If `srcTokenAddr` isn't ETH, make sure that msg.sender has approved  to spend `srcTokenAddr` in `srcAmount` amount. In both cases, one should provide additional ETH in msg.value that would serve as a reward for the one who calls `execute(orderId,calldata)`.",
        "params": {
          "dstTokenAddr": "- address of token to swap to",
          "minReturnAmount": "- min number of dstToken to be received",
          "period": "- period in seconds after which order cannot be executed",
          "srcAmount": "- amount of srcToken in minimal divisible units",
          "srcTokenAddr": "- address of token to swap from"
        }
      },
      "execute(uint256,bytes)": {
        "details": "- Execute order. On successful execution, msg.sender gets `execReward` provided by order's `beneficiary`.",
        "params": {
          "oneInchCallData": "- data obtained from \"/swap\" endpoint of 1inch API",
          "orderId": "- id of order"
        }
      },
      "refund(uint256)": {
        "details": "- Refund order's `beneficiary`.",
        "params": {
          "orderId": "- id of order"
        }
      },
      "update(uint256,uint256,uint256)": {
        "details": "- Update `minReturnAmount` and `expiration` of an existing order.",
        "params": {
          "minReturnAmount": "- min number of dstToken to be received",
          "period": "- period in seconds after which order cannot be executed"
        }
      }
    },
    "version": 1
  },
  "userdoc": {
    "kind": "user",
    "methods": {},
    "version": 1
  }
}