{
  "contractName": "OneInchOrderProxy",
  "abi": [
    {
      "inputs": [
        {
          "internalType": "address",
          "name": "_oneInchAddr",
          "type": "address"
        }
      ],
      "stateMutability": "nonpayable",
      "type": "constructor"
    },
    {
      "anonymous": false,
      "inputs": [
        {
          "indexed": true,
          "internalType": "uint256",
          "name": "id",
          "type": "uint256"
        },
        {
          "indexed": false,
          "internalType": "address",
          "name": "srcToken",
          "type": "address"
        },
        {
          "indexed": false,
          "internalType": "address",
          "name": "dstToken",
          "type": "address"
        },
        {
          "indexed": false,
          "internalType": "uint256",
          "name": "srcAmount",
          "type": "uint256"
        },
        {
          "indexed": false,
          "internalType": "uint256",
          "name": "execReward",
          "type": "uint256"
        },
        {
          "indexed": false,
          "internalType": "uint256",
          "name": "minReturnAmount",
          "type": "uint256"
        },
        {
          "indexed": false,
          "internalType": "uint256",
          "name": "expiration",
          "type": "uint256"
        }
      ],
      "name": "Create",
      "type": "event"
    },
    {
      "anonymous": false,
      "inputs": [
        {
          "indexed": true,
          "internalType": "uint256",
          "name": "id",
          "type": "uint256"
        }
      ],
      "name": "Execute",
      "type": "event"
    },
    {
      "anonymous": false,
      "inputs": [
        {
          "indexed": true,
          "internalType": "uint256",
          "name": "id",
          "type": "uint256"
        }
      ],
      "name": "Refund",
      "type": "event"
    },
    {
      "anonymous": false,
      "inputs": [
        {
          "indexed": true,
          "internalType": "uint256",
          "name": "id",
          "type": "uint256"
        },
        {
          "indexed": false,
          "internalType": "uint256",
          "name": "minReturnAmount",
          "type": "uint256"
        },
        {
          "indexed": false,
          "internalType": "uint256",
          "name": "expiration",
          "type": "uint256"
        }
      ],
      "name": "Update",
      "type": "event"
    },
    {
      "inputs": [],
      "name": "_dstReceiver",
      "outputs": [
        {
          "internalType": "address",
          "name": "",
          "type": "address"
        }
      ],
      "stateMutability": "view",
      "type": "function",
      "constant": true
    },
    {
      "inputs": [],
      "name": "_guaranteedAmount",
      "outputs": [
        {
          "internalType": "uint256",
          "name": "",
          "type": "uint256"
        }
      ],
      "stateMutability": "view",
      "type": "function",
      "constant": true
    },
    {
      "inputs": [],
      "name": "_minReturnAmount",
      "outputs": [
        {
          "internalType": "uint256",
          "name": "",
          "type": "uint256"
        }
      ],
      "stateMutability": "view",
      "type": "function",
      "constant": true
    },
    {
      "inputs": [],
      "name": "oneInchExchange",
      "outputs": [
        {
          "internalType": "contract IOneInchExchange",
          "name": "",
          "type": "address"
        }
      ],
      "stateMutability": "view",
      "type": "function",
      "constant": true
    },
    {
      "inputs": [
        {
          "internalType": "uint256",
          "name": "",
          "type": "uint256"
        }
      ],
      "name": "orders",
      "outputs": [
        {
          "internalType": "contract IERC20",
          "name": "srcToken",
          "type": "address"
        },
        {
          "internalType": "contract IERC20",
          "name": "dstToken",
          "type": "address"
        },
        {
          "internalType": "uint256",
          "name": "srcAmount",
          "type": "uint256"
        },
        {
          "internalType": "uint256",
          "name": "minReturnAmount",
          "type": "uint256"
        },
        {
          "internalType": "uint256",
          "name": "execReward",
          "type": "uint256"
        },
        {
          "internalType": "uint256",
          "name": "expiration",
          "type": "uint256"
        },
        {
          "internalType": "address payable",
          "name": "beneficiary",
          "type": "address"
        },
        {
          "internalType": "enum OneInchOrderProxy.State",
          "name": "state",
          "type": "uint8"
        }
      ],
      "stateMutability": "view",
      "type": "function",
      "constant": true
    },
    {
      "stateMutability": "payable",
      "type": "receive",
      "payable": true
    },
    {
      "inputs": [
        {
          "internalType": "address",
          "name": "srcTokenAddr",
          "type": "address"
        },
        {
          "internalType": "address",
          "name": "dstTokenAddr",
          "type": "address"
        },
        {
          "internalType": "uint256",
          "name": "srcAmount",
          "type": "uint256"
        },
        {
          "internalType": "uint256",
          "name": "minReturnAmount",
          "type": "uint256"
        },
        {
          "internalType": "uint256",
          "name": "period",
          "type": "uint256"
        }
      ],
      "name": "create",
      "outputs": [],
      "stateMutability": "payable",
      "type": "function",
      "payable": true
    },
    {
      "inputs": [
        {
          "internalType": "uint256",
          "name": "orderId",
          "type": "uint256"
        },
        {
          "internalType": "uint256",
          "name": "minReturnAmount",
          "type": "uint256"
        },
        {
          "internalType": "uint256",
          "name": "period",
          "type": "uint256"
        }
      ],
      "name": "update",
      "outputs": [],
      "stateMutability": "nonpayable",
      "type": "function"
    },
    {
      "inputs": [
        {
          "internalType": "uint256",
          "name": "orderId",
          "type": "uint256"
        },
        {
          "internalType": "bytes",
          "name": "oneInchCallData",
          "type": "bytes"
        }
      ],
      "name": "execute",
      "outputs": [],
      "stateMutability": "nonpayable",
      "type": "function"
    },
    {
      "inputs": [
        {
          "internalType": "uint256",
          "name": "orderId",
          "type": "uint256"
        }
      ],
      "name": "refund",
      "outputs": [],
      "stateMutability": "nonpayable",
      "type": "function"
    },
    {
      "inputs": [],
      "name": "countOrders",
      "outputs": [
        {
          "internalType": "uint256",
          "name": "",
          "type": "uint256"
        }
      ],
      "stateMutability": "view",
      "type": "function",
      "constant": true
    },
    {
      "inputs": [
        {
          "internalType": "bytes",
          "name": "oneInchCallData",
          "type": "bytes"
        }
      ],
      "name": "_decode_",
      "outputs": [],
      "stateMutability": "nonpayable",
      "type": "function"
    }
  ],
  "bytecode": "0x608060405234801561001057600080fd5b50604051611d37380380611d3783398101604081905261002f91610054565b600080546001600160a01b0319166001600160a01b0392909216919091179055610082565b600060208284031215610065578081fd5b81516001600160a01b038116811461007b578182fd5b9392505050565b611ca6806100916000396000f3fe6080604052600436106100a05760003560e01c8063577c7d0e11610064578063577c7d0e1461015057806359efcb15146101655780636a05425014610185578063891b1a00146101a55780638eb70e8c146101b8578063a85c38ef146101cd576100a7565b80630d73c6de146100ac57806320de622a146100d7578063278ecde1146100f95780633a6e525b146101195780633c16a4ae1461012e576100a7565b366100a757005b600080fd5b3480156100b857600080fd5b506100c1610201565b6040516100ce9190611bc6565b60405180910390f35b3480156100e357600080fd5b506100f76100f23660046112b6565b610207565b005b34801561010557600080fd5b506100f7610114366004611422565b610263565b34801561012557600080fd5b506100c16103d2565b34801561013a57600080fd5b506101436103d8565b6040516100ce9190611599565b34801561015c57600080fd5b506100c16103e7565b34801561017157600080fd5b506100f7610180366004611452565b6103ed565b34801561019157600080fd5b506100f76101a036600461149c565b610682565b6100f76101b3366004611246565b610779565b3480156101c457600080fd5b50610143610a65565b3480156101d957600080fd5b506101ed6101e8366004611422565b610a74565b6040516100ce98979695949392919061163a565b60015490565b61020f610ffc565b61021c8260048186611c04565b81019061022991906112f6565b506060810151600280546001600160a01b0319166001600160a01b0390921691909117905560c081015160035560a0015160045550505050565b60006001828154811061027257fe5b60009182526020822060079091020191506006820154600160a01b900460ff16600281111561029d57fe5b146102c35760405162461bcd60e51b81526004016102ba906118c8565b60405180910390fd5b60068101546001600160a01b031633146102ef5760405162461bcd60e51b81526004016102ba90611a6b565b8054610303906001600160a01b0316610ada565b1561033e576103393361032783600401548460020154610b1490919063ffffffff16565b83546001600160a01b03169190610b40565b61038e565b6002810154815461035c916001600160a01b03909116903390610b40565b6004810154604051339180156108fc02916000818181858888f1935050505015801561038c573d6000803e3d6000fd5b505b60068101805460ff60a01b1916600160a11b17905560405182907f2e1897b0591d764356194f7a795238a87c1987c7a877568e50d829d547c92b9790600090a25050565b60035481565b6000546001600160a01b031681565b60045481565b6000600184815481106103fc57fe5b60009182526020822060079091020191506006820154600160a01b900460ff16600281111561042757fe5b146104445760405162461bcd60e51b81526004016102ba90611853565b42816005015410156104685760405162461bcd60e51b81526004016102ba9061190d565b6000610472610ffc565b60606104818560048189611c04565b81019061048e91906112f6565b92509250925083600301548260c0015110156104bc5760405162461bcd60e51b81526004016102ba906119d7565b835482516001600160a01b0390811691161480156104ee5750600184015460208301516001600160a01b039081169116145b801561050e5750600684015460608301516001600160a01b039081169116145b61052a5760405162461bcd60e51b81526004016102ba90611a34565b8354600090610541906001600160a01b0316610ada565b61054c576000610552565b84600201545b600080546040516348208d1960e11b815292935090916001600160a01b03909116906390411a3290849061058e90899089908990600401611694565b6020604051808303818588803b1580156105a757600080fd5b505af11580156105bb573d6000803e3d6000fd5b50505050506040513d601f19601f820116820180604052508101906105e0919061143a565b905085600301548110156106065760405162461bcd60e51b81526004016102ba906117be565b60068601805460ff60a01b1916600160a01b1790556004860154604051339180156108fc02916000818181858888f1935050505015801561064b573d6000803e3d6000fd5b5060405189907fddb556f1d2c1ec821e910b019d3685b229db152a0ecd517ca7e24b8bd713928990600090a2505050505050505050565b428082019081116106a55760405162461bcd60e51b81526004016102ba90611b7a565b6000600185815481106106b457fe5b60009182526020822060079091020191506006820154600160a01b900460ff1660028111156106df57fe5b146106fc5760405162461bcd60e51b81526004016102ba90611b35565b60068101546001600160a01b031633146107285760405162461bcd60e51b81526004016102ba90611a6b565b600381018490556005810182905560405185907f40c2d32ec54ffac45999120b79eb2516538010ed69ffd59c3f8a184d83b1309e9061076a9087908690611bcf565b60405180910390a25050505050565b4280820190811161079c5760405162461bcd60e51b81526004016102ba90611b7a565b85856107b06001600160a01b038316610ada565b6107bb5760006107bd565b855b34116107db5760405162461bcd60e51b81526004016102ba90611953565b60006107ef836001600160a01b0316610ada565b6107f95734610803565b6108033488610ba9565b9050610817836001600160a01b0316610ada565b61084a576108306001600160a01b03841633308a610beb565b60005461084a906001600160a01b03858116911689610c49565b61085261107c565b5060408051610100810182526001600160a01b038581168252848116602083019081529282018a8152606083018a81526080840186815260a085018a81523360c08701908152600060e0880181815260018054808201825592528851600783027fb10e2d527612073b26eecdfd717e6a320cf44b4afac2b0732d9fcbe2b7fa0cf681018054928b166001600160a01b03199384161781559b517fb10e2d527612073b26eecdfd717e6a320cf44b4afac2b0732d9fcbe2b7fa0cf782018054918c1691841691909117905597517fb10e2d527612073b26eecdfd717e6a320cf44b4afac2b0732d9fcbe2b7fa0cf889015595517fb10e2d527612073b26eecdfd717e6a320cf44b4afac2b0732d9fcbe2b7fa0cf988015593517fb10e2d527612073b26eecdfd717e6a320cf44b4afac2b0732d9fcbe2b7fa0cfa87015591517fb10e2d527612073b26eecdfd717e6a320cf44b4afac2b0732d9fcbe2b7fa0cfb860155517fb10e2d527612073b26eecdfd717e6a320cf44b4afac2b0732d9fcbe2b7fa0cfc90940180549490951693909216929092178084559151939490938593919290919060ff60a01b1916600160a01b836002811115610a0f57fe5b02179055505050807f09b75c2d72b59cb333687ec1a60317c46ff81b30e3d7d1e91d8cac242a0e7c878c8c8c878d8c604051610a50969594939291906115eb565b60405180910390a25050505050505050505050565b6002546001600160a01b031681565b60018181548110610a8157fe5b600091825260209091206007909102018054600182015460028301546003840154600485015460058601546006909601546001600160a01b0395861697509385169592949193909291811690600160a01b900460ff1688565b60006001600160a01b0382161580610b0e57506001600160a01b03821673eeeeeeeeeeeeeeeeeeeeeeeeeeeeeeeeeeeeeeee145b92915050565b600082820183811015610b395760405162461bcd60e51b81526004016102ba90611787565b9392505050565b8015610ba457610b4f83610ada565b15610b90576040516001600160a01b0383169082156108fc029083906000818181858888f19350505050158015610b8a573d6000803e3d6000fd5b50610ba4565b610ba46001600160a01b0384168383610d48565b505050565b6000610b3983836040518060400160405280601e81526020017f536166654d6174683a207375627472616374696f6e206f766572666c6f770000815250610d67565b610c43846323b872dd60e01b858585604051602401610c0c939291906115c7565b60408051601f198184030181529190526020810180516001600160e01b03166001600160e01b031990931692909217909152610d93565b50505050565b610c5283610ada565b15610c6f5760405162461bcd60e51b81526004016102ba90611899565b80610c8e57610c896001600160a01b038416836000610e22565b610ba4565b604051636eb1769f60e11b81526000906001600160a01b0385169063dd62ed3e90610cbf90309087906004016115ad565b60206040518083038186803b158015610cd757600080fd5b505afa158015610ceb573d6000803e3d6000fd5b505050506040513d601f19601f82011682018060405250810190610d0f919061143a565b905081811015610c43578015610d3457610d346001600160a01b038516846000610e22565b610c436001600160a01b0385168484610e22565b610ba48363a9059cbb60e01b8484604051602401610c0c929190611621565b60008184841115610d8b5760405162461bcd60e51b81526004016102ba9190611774565b505050900390565b6060610de8826040518060400160405280602081526020017f5361666545524332303a206c6f772d6c6576656c2063616c6c206661696c6564815250856001600160a01b0316610ee59092919063ffffffff16565b805190915015610ba45780806020019051810190610e069190611296565b610ba45760405162461bcd60e51b81526004016102ba90611a95565b801580610eaa5750604051636eb1769f60e11b81526001600160a01b0384169063dd62ed3e90610e5890309086906004016115ad565b60206040518083038186803b158015610e7057600080fd5b505afa158015610e84573d6000803e3d6000fd5b505050506040513d601f19601f82011682018060405250810190610ea8919061143a565b155b610ec65760405162461bcd60e51b81526004016102ba90611adf565b610ba48363095ea7b360e01b8484604051602401610c0c929190611621565b6060610ef48484600085610efc565b949350505050565b606082471015610f1e5760405162461bcd60e51b81526004016102ba9061180d565b610f2785610fbd565b610f435760405162461bcd60e51b81526004016102ba906119a0565b60006060866001600160a01b03168587604051610f60919061157d565b60006040518083038185875af1925050503d8060008114610f9d576040519150601f19603f3d011682016040523d82523d6000602084013e610fa2565b606091505b5091509150610fb2828286610fc3565b979650505050505050565b3b151590565b60608315610fd2575081610b39565b825115610fe25782518084602001fd5b8160405162461bcd60e51b81526004016102ba9190611774565b60405180610140016040528060006001600160a01b0316815260200160006001600160a01b0316815260200160006001600160a01b0316815260200160006001600160a01b031681526020016000815260200160008152602001600081526020016000815260200160006001600160a01b03168152602001606081525090565b6040805161010081018252600080825260208201819052918101829052606081018290526080810182905260a0810182905260c081018290529060e082015290565b8035610b0e81611c58565b600082601f8301126110d9578081fd5b813567ffffffffffffffff808211156110f0578283fd5b60206110ff8182850201611bdd565b838152935080840185820160005b8581101561118a5781358801608080601f19838d0301121561112e57600080fd5b61113781611bdd565b828701358152604080840135828901526060808501358284015292840135928984111561116357600080fd5b6111718e8a868801016111dd565b908301525085525050918301919083019060010161110d565b50505050505092915050565b60008083601f8401126111a7578081fd5b50813567ffffffffffffffff8111156111be578182fd5b6020830191508360208285010111156111d657600080fd5b9250929050565b600082601f8301126111ed578081fd5b813567ffffffffffffffff811115611203578182fd5b611216601f8201601f1916602001611bdd565b915080825283602082850101111561122d57600080fd5b8060208401602084013760009082016020015292915050565b600080600080600060a0868803121561125d578081fd5b853561126881611c58565b9450602086013561127881611c58565b94979496505050506040830135926060810135926080909101359150565b6000602082840312156112a7578081fd5b81518015158114610b39578182fd5b600080602083850312156112c8578182fd5b823567ffffffffffffffff8111156112de578283fd5b6112ea85828601611196565b90969095509350505050565b60008060006060848603121561130a578283fd5b833561131581611c58565b9250602084013567ffffffffffffffff80821115611331578384fd5b8186019150610140808389031215611347578485fd5b61135081611bdd565b905061135c88846110be565b815261136b88602085016110be565b602082015261137d88604085016110be565b604082015261138f88606085016110be565b60608201526080830135608082015260a083013560a082015260c083013560c082015260e083013560e08201526101006113cb898286016110be565b9082015261012083810135838111156113e2578687fd5b6113ee8a8287016111dd565b82840152505080945050604086013591508082111561140b578283fd5b50611418868287016110c9565b9150509250925092565b600060208284031215611433578081fd5b5035919050565b60006020828403121561144b578081fd5b5051919050565b600080600060408486031215611466578283fd5b83359250602084013567ffffffffffffffff811115611483578283fd5b61148f86828701611196565b9497909650939450505050565b6000806000606084860312156114b0578283fd5b505081359360208301359350604090920135919050565b6001600160a01b03169052565b6000815180845260208085018081965082840281019150828601855b8581101561154457828403895281518051855285810151868601526040808201519086015260609081015160809186018290529061153081870183611551565b9a87019a95505050908401906001016114f0565b5091979650505050505050565b60008151808452611569816020860160208601611c2c565b601f01601f19169290920160200192915050565b6000825161158f818460208701611c2c565b9190910192915050565b6001600160a01b0391909116815260200190565b6001600160a01b0392831681529116602082015260400190565b6001600160a01b039384168152919092166020820152604081019190915260600190565b6001600160a01b03968716815294909516602085015260408401929092526060830152608082015260a081019190915260c00190565b6001600160a01b03929092168252602082015260400190565b6001600160a01b038981168252888116602083015260408201889052606082018790526080820186905260a08201859052831660c082015261010081016003831061168157fe5b8260e08301529998505050505050505050565b600060018060a01b0385168252606060208301526116b66060830185516114c7565b60208401516116c860808401826114c7565b5060408401516116db60a08401826114c7565b5060608401516116ee60c08401826114c7565b50608084015160e083015260a0840151610100818185015260c08601519150610120828186015260e0870151925061014083818701528288015193506117386101608701856114c7565b818801519350806101808701525050506117566101a0840182611551565b9050828103604084015261176a81856114d4565b9695505050505050565b600060208252610b396020830184611551565b6020808252601b908201527f536166654d6174683a206164646974696f6e206f766572666c6f770000000000604082015260600190565b6020808252602f908201527f72657475726e416d6f756e74206973206c657373207468616e206f726465722e60408201526e1b5a5b94995d1d5c9b905b5bdd5b9d608a1b606082015260800190565b60208082526026908201527f416464726573733a20696e73756666696369656e742062616c616e636520666f6040820152651c8818d85b1b60d21b606082015260800190565b60208082526026908201527f4f726465723a2043616e2065786563757465206f6e6c792070656e64696e67206040820152656f726465727360d01b606082015260800190565b602080825260159082015274082e0e0e4deecca40c6c2d8d8cac840dedc408aa89605b1b604082015260600190565b60208082526025908201527f4f726465723a2043616e20726566756e64206f6e6c792070656e64696e67206f604082015264726465727360d81b606082015260800190565b60208082526026908201527f4f726465723a2043616e6e6f74206578656375746520616e20657870697265646040820152651037b93232b960d11b606082015260800190565b6020808252602d908201527f547820696d706f737369626c653a204e6f7420656e6f7567682066756e64732060408201526c1d1bc81c185e481c995dd85c99609a1b606082015260800190565b6020808252601d908201527f416464726573733a2063616c6c20746f206e6f6e2d636f6e7472616374000000604082015260600190565b60208082526038908201527f646573632e67756172616e74656564416d6f756e74206973206c65737320746860408201527f616e206f726465722e6d696e52657475726e416d6f756e740000000000000000606082015260800190565b60208082526017908201527f43616c6c64617461206973206e6f7420636f7272656374000000000000000000604082015260600190565b60208082526010908201526f2bb937b7339036b9b39739b2b73232b960811b604082015260600190565b6020808252602a908201527f5361666545524332303a204552433230206f7065726174696f6e20646964206e6040820152691bdd081cdd58d8d9595960b21b606082015260800190565b60208082526036908201527f5361666545524332303a20617070726f76652066726f6d206e6f6e2d7a65726f60408201527520746f206e6f6e2d7a65726f20616c6c6f77616e636560501b606082015260800190565b60208082526025908201527f4f726465723a2043616e20757064617465206f6e6c792070656e64696e67206f604082015264726465727360d81b606082015260800190565b6020808252602c908201527f4f726465723a2045787069726174696f6e206973206265666f7265206375727260408201526b656e74206461746574696d6560a01b606082015260800190565b90815260200190565b918252602082015260400190565b60405181810167ffffffffffffffff81118282101715611bfc57600080fd5b604052919050565b60008085851115611c13578182fd5b83861115611c1f578182fd5b5050820193919092039150565b60005b83811015611c47578181015183820152602001611c2f565b83811115610c435750506000910152565b6001600160a01b0381168114611c6d57600080fd5b5056fea264697066735822122002e0315664acc85e7bc3e6216ca2bf16a7a76f3cb82d9553bd55d5993107f7e564736f6c634300060c0033",
  "immutableReferences": {},
  "source": "// SPDX-License-Identifier: MIT\n\npragma solidity >=0.4.25 <0.7.0;\npragma experimental ABIEncoderV2;\n\nimport \"./UniERC20.sol\";\nimport \"./IOneInchExchange.sol\";\n\ncontract OneInchOrderProxy {\n  using SafeMath for uint256;\n  using SafeERC20 for IERC20;\n  using UniERC20 for IERC20;\n\n  enum State { Pending, Fulfilled, Refunded }\n  struct Order {\n    IERC20 srcToken;\n    IERC20 dstToken;\n    uint256 srcAmount;\n    uint256 minReturnAmount;\n    uint256 execReward;\n    uint256 expiration;\n    address payable beneficiary;\n    State state;\n  }\n\n  IOneInchExchange public oneInchExchange;\n\n  Order[] public orders;\n\n  event Create(uint256 indexed id, address srcToken, address dstToken, uint256 srcAmount, uint256 execReward, uint256 minReturnAmount, uint256 expiration);\n  event Update(uint256 indexed id, uint256 minReturnAmount, uint256 expiration);\n  event Execute(uint256 indexed id);\n  event Refund(uint256 indexed id);\n\n  address public _dstReceiver;\n  uint256 public _guaranteedAmount;\n  uint256 public _minReturnAmount;\n\n  constructor(\n    address _oneInchAddr\n  ) public {\n    oneInchExchange = IOneInchExchange(_oneInchAddr);\n\t}\n\n  /**\n   * @dev - Create an order to be executed on OneInch before expiration.\n   * If `srcTokenAddr` is ETH, `srcAmount` has to be included in msg.value.\n   * If `srcTokenAddr` isn't ETH, make sure that msg.sender has approved \n   * to spend `srcTokenAddr` in `srcAmount` amount.\n   * In both cases, one should provide additional ETH in msg.value that\n   * would serve as a reward for the one who calls `execute(orderId,calldata)`.\n   *\n   * @param srcTokenAddr - input ERC20 address\n   * @param dstTokenAddr - target ERC20 address\n   * @param srcAmount - amount of input ERC20 to be swapped (in minimal divisible units)\n   * @param minReturnAmount - min expected amount of target ERC20 (in minimal divisible units)\n   * @param period - period in seconds after which order cannot be executed\n   */\n  function create(\n    address srcTokenAddr,\n    address dstTokenAddr,\n    uint256 srcAmount,\n    uint256 minReturnAmount,\n    uint256 period\n  ) external payable {\n    uint256 expiration = block.timestamp + period;\n    require(expiration > block.timestamp, \"Order: Expiration is before current datetime\");\n\n    IERC20 srcToken = IERC20(srcTokenAddr);\n    IERC20 dstToken = IERC20(dstTokenAddr);\n\n    require(\n      msg.value > (srcToken.isETH() ? srcAmount : 0),\n      \"Tx impossible: Not enough funds to pay reward\"\n    );\n    uint256 execReward = srcToken.isETH() ? msg.value.sub(srcAmount) : msg.value;\n\n    if (!srcToken.isETH()) {\n      srcToken.safeTransferFrom(msg.sender, address(this), srcAmount);\n      srcToken.uniApprove(address(oneInchExchange), srcAmount);\n    }\n\n    Order memory order = Order(\n      srcToken,\n      dstToken,\n      srcAmount,\n      minReturnAmount,\n      execReward,\n      expiration,\n      msg.sender,\n      State.Pending\n    );\n    uint256 orderId = orders.length;\n    orders.push(order);\n\n    emit Create(orderId, srcTokenAddr, dstTokenAddr, srcAmount, execReward, minReturnAmount, expiration);\n  }\n\n  /**\n   * @dev - Update `minReturnAmount` and `expiration` of an existing order.\n   *\n   * @param minReturnAmount - min number of dstToken to be received\n   * @param period - period in seconds after which order cannot be executed\n   */\n  function update(\n    uint256 orderId,\n    uint256 minReturnAmount,\n    uint256 period\n  ) external {\n    uint256 expiration = block.timestamp + period;\n    require(expiration > block.timestamp, \"Order: Expiration is before current datetime\");\n\n    Order storage order = orders[orderId];\n\n    require(order.state == State.Pending, \"Order: Can update only pending orders\");\n    require(msg.sender == order.beneficiary, \"Wrong msg.sender\");\n    \n    order.minReturnAmount = minReturnAmount;\n    order.expiration = expiration;\n\n    emit Update(orderId, order.minReturnAmount, order.expiration);\n  }\n\n  /**\n   * @dev - Execute order. On successful execution, msg.sender gets\n   * `execReward` provided by order's `beneficiary`.\n   *\n   * @param orderId - id of order\n   * @param oneInchCallData - data obtained from \"/swap\" endpoint of 1inch API\n   */\n  function execute(uint256 orderId, bytes calldata oneInchCallData) external {\n    Order storage order = orders[orderId];\n\n    require(\n      order.state == State.Pending,\n      \"Order: Can execute only pending orders\"\n    );\n    require(\n      order.expiration >= block.timestamp,\n      \"Order: Cannot execute an expired order\"\n    );\n\n    (IOneInchCaller caller, IOneInchExchange.SwapDescription memory desc, IOneInchCaller.CallDescription[] memory calls) = abi\n      .decode(oneInchCallData[4:], (IOneInchCaller, IOneInchExchange.SwapDescription, IOneInchCaller.CallDescription[]));\n\n    require(\n      desc.guaranteedAmount >= order.minReturnAmount,\n      \"desc.guaranteedAmount is less than order.minReturnAmount\"\n    );\n\n    require(\n      address(desc.srcToken) == address(order.srcToken) &&\n      address(desc.dstToken) == address(order.dstToken) &&\n      desc.dstReceiver == order.beneficiary,\n      \"Calldata is not correct\"\n    );\n\n    uint256 msgValue = order.srcToken.isETH() ? order.srcAmount : 0;\n\n    uint256 returnAmount = oneInchExchange.swap{ value: msgValue }(caller, desc, calls);\n\n    require(returnAmount >= order.minReturnAmount, \"returnAmount is less than order.minReturnAmount\");\n    order.state = State.Fulfilled;\n\n    msg.sender.transfer(order.execReward);\n    emit Execute(orderId);\n  }\n\n  /**\n   * @dev - Refund order's `beneficiary`.\n   *\n   * @param orderId - id of order\n   */\n  function refund(uint256 orderId) external {\n    Order storage order = orders[orderId];\n\n    require(order.state == State.Pending, \"Order: Can refund only pending orders\");\n    require(msg.sender == order.beneficiary, \"Wrong msg.sender\");\n\n    if (order.srcToken.isETH()) {\n      order.srcToken.uniTransfer(msg.sender, order.srcAmount.add(order.execReward));\n    }\n    else {\n      order.srcToken.uniTransfer(msg.sender, order.srcAmount);\n      msg.sender.transfer(order.execReward);\n    }\n\n    order.state = State.Refunded;\n    emit Refund(orderId);\n  }\n\n  /**\n   * @dev - Return number of all created orders.\n   */\n  function countOrders() external view returns(uint256) {\n    return orders.length;\n  }\n\n  function _decode_(bytes calldata oneInchCallData) external {\n    (,IOneInchExchange.SwapDescription memory desc,) = abi\n      .decode(oneInchCallData[4:], (IOneInchCaller, IOneInchExchange.SwapDescription, IOneInchCaller.CallDescription[]));\n\n    _dstReceiver = desc.dstReceiver;\n    _guaranteedAmount = desc.guaranteedAmount;\n    _minReturnAmount = desc.minReturnAmount;\n  }\n\n  receive() external payable {}\n}\n",
  "sourcePath": "/Users/bob/1inch-multisig-proxy/contracts/OneInchOrderProxy.sol",
  "compiler": {
    "name": "solc",
    "version": "0.6.12+commit.27d51765.Emscripten.clang"
  },
  "schemaVersion": "3.2.1",
  "updatedAt": "2020-12-22T08:55:05.254Z",
  "networkType": "ethereum",
  "devdoc": {
    "kind": "dev",
    "methods": {
      "countOrders()": {
        "details": "- Return number of all created orders."
      },
      "create(address,address,uint256,uint256,uint256)": {
        "details": "- Create an order to be executed on OneInch before expiration. If `srcTokenAddr` is ETH, `srcAmount` has to be included in msg.value. If `srcTokenAddr` isn't ETH, make sure that msg.sender has approved  to spend `srcTokenAddr` in `srcAmount` amount. In both cases, one should provide additional ETH in msg.value that would serve as a reward for the one who calls `execute(orderId,calldata)`.",
        "params": {
          "dstTokenAddr": "- target ERC20 address",
          "minReturnAmount": "- min expected amount of target ERC20 (in minimal divisible units)",
          "period": "- period in seconds after which order cannot be executed",
          "srcAmount": "- amount of input ERC20 to be swapped (in minimal divisible units)",
          "srcTokenAddr": "- input ERC20 address"
        }
      },
      "execute(uint256,bytes)": {
        "details": "- Execute order. On successful execution, msg.sender gets `execReward` provided by order's `beneficiary`.",
        "params": {
          "oneInchCallData": "- data obtained from \"/swap\" endpoint of 1inch API",
          "orderId": "- id of order"
        }
      },
      "refund(uint256)": {
        "details": "- Refund order's `beneficiary`.",
        "params": {
          "orderId": "- id of order"
        }
      },
      "update(uint256,uint256,uint256)": {
        "details": "- Update `minReturnAmount` and `expiration` of an existing order.",
        "params": {
          "minReturnAmount": "- min number of dstToken to be received",
          "period": "- period in seconds after which order cannot be executed"
        }
      }
    },
    "version": 1
  },
  "userdoc": {
    "kind": "user",
    "methods": {},
    "version": 1
  }
}